:020000040000FA
:060000000A128A110E280D
:10000800FE00030EF2000408F3000A08F4000A12C6
:100018008A112F280A128A1111280A128A113521E9
:100028000A128A11F8000A128A1136210A128A1154
:10003800F9000A128A1137210A128A11FA000A12E3
:100048008A1138210A128A11FB00FC01FD01830183
:100058000A128A1189280B1C322833285528831242
:100068000313861838283928442878037904031D8F
:100078003E283F2844280508FF3E8500F801F9017D
:1000880006184728482854287A037B04031D4D285E
:100098004E2854280130F00070088507FA01FB014A
:1000A8000B10831203130C1F5A285B2863281E08A1
:1000B800F000F1017008FC007108FD000C130B1D25
:1000C8006628672880286E28081488107F2808105A
:1000D80088147F2808080139F000F1017108003AF6
:1000E800031977287F287008003A03196828013A0D
:1000F80003196B287F280B1174088A007308840081
:10010800720E8300FE0E7E0E09000A128A11E2208A
:100118000A128A110A128A1111210A128A110A1264
:100128008A1128210A128A1183120313061C9D289A
:100138009E28A2280130FA000030FB00861CA52862
:10014800A628AA280130F8000030F9009F149F184B
:10015800AE28AF28AB287C0887007D08803A803C11
:10016800031DB8287C0805020318BB28BC28BF2833
:100178008312031308157D08803AF5008030750254
:10018800031DCA288312031305087C020318CD280F
:10019800CE28D1288312031308110230F700043047
:1001A800F600BA30F500F50BD728F60BD728F70B71
:1001B800D728000098280A128A110E2883160313DC
:1001C80087018312031387018601FF308316031307
:1001D80086008316031789018B178B150B170330BD
:1001E800831603139600FF309500811383120313BF
:1001F800850183160313850183120313880183166F
:1002080003138801831203138901831603178801D6
:100218008316031389010B100800831203139F131D
:100228001F179F121F169F151F11831603139F1365
:100238001F129F12831203131F14831603130C1724
:10024800831203130C130800831603138112811100
:100258000111811001140B11FF3083120313810067
:0A02680008000134003401340034B2
:04400E00D4E0FFFFFC
:00000001FF
